{
  "_format": "hh-sol-artifact-1",
  "contractName": "PredictionMarket",
  "sourceName": "contracts/PredictionMarket.sol",
  "abi": [
    {
      "inputs": [
        {
          "internalType": "address",
          "name": "_bettingToken",
          "type": "address"
        }
      ],
      "stateMutability": "nonpayable",
      "type": "constructor"
    },
    {
      "inputs": [],
      "name": "EnforcedPause",
      "type": "error"
    },
    {
      "inputs": [],
      "name": "ExpectedPause",
      "type": "error"
    },
    {
      "inputs": [
        {
          "internalType": "address",
          "name": "owner",
          "type": "address"
        }
      ],
      "name": "OwnableInvalidOwner",
      "type": "error"
    },
    {
      "inputs": [
        {
          "internalType": "address",
          "name": "account",
          "type": "address"
        }
      ],
      "name": "OwnableUnauthorizedAccount",
      "type": "error"
    },
    {
      "inputs": [],
      "name": "ReentrancyGuardReentrantCall",
      "type": "error"
    },
    {
      "inputs": [
        {
          "internalType": "address",
          "name": "token",
          "type": "address"
        }
      ],
      "name": "SafeERC20FailedOperation",
      "type": "error"
    },
    {
      "anonymous": false,
      "inputs": [
        {
          "indexed": true,
          "internalType": "uint256",
          "name": "marketId",
          "type": "uint256"
        },
        {
          "indexed": true,
          "internalType": "uint256",
          "name": "outcomeId",
          "type": "uint256"
        },
        {
          "indexed": true,
          "internalType": "address",
          "name": "bettor",
          "type": "address"
        },
        {
          "indexed": false,
          "internalType": "uint256",
          "name": "amount",
          "type": "uint256"
        },
        {
          "indexed": false,
          "internalType": "uint256",
          "name": "shares",
          "type": "uint256"
        }
      ],
      "name": "BetPlaced",
      "type": "event"
    },
    {
      "anonymous": false,
      "inputs": [
        {
          "indexed": true,
          "internalType": "uint256",
          "name": "marketId",
          "type": "uint256"
        },
        {
          "indexed": true,
          "internalType": "address",
          "name": "provider",
          "type": "address"
        },
        {
          "indexed": false,
          "internalType": "uint256",
          "name": "amount",
          "type": "uint256"
        }
      ],
      "name": "LiquidityAdded",
      "type": "event"
    },
    {
      "anonymous": false,
      "inputs": [
        {
          "indexed": true,
          "internalType": "uint256",
          "name": "marketId",
          "type": "uint256"
        },
        {
          "indexed": false,
          "internalType": "string",
          "name": "question",
          "type": "string"
        },
        {
          "indexed": false,
          "internalType": "uint256",
          "name": "endTime",
          "type": "uint256"
        },
        {
          "indexed": false,
          "internalType": "address",
          "name": "creator",
          "type": "address"
        }
      ],
      "name": "MarketCreated",
      "type": "event"
    },
    {
      "anonymous": false,
      "inputs": [
        {
          "indexed": true,
          "internalType": "uint256",
          "name": "marketId",
          "type": "uint256"
        },
        {
          "indexed": false,
          "internalType": "uint256",
          "name": "winningOutcome",
          "type": "uint256"
        },
        {
          "indexed": false,
          "internalType": "address",
          "name": "resolver",
          "type": "address"
        }
      ],
      "name": "MarketResolved",
      "type": "event"
    },
    {
      "anonymous": false,
      "inputs": [
        {
          "indexed": true,
          "internalType": "uint256",
          "name": "marketId",
          "type": "uint256"
        },
        {
          "indexed": true,
          "internalType": "uint256",
          "name": "outcomeId",
          "type": "uint256"
        },
        {
          "indexed": false,
          "internalType": "string",
          "name": "description",
          "type": "string"
        }
      ],
      "name": "OutcomeAdded",
      "type": "event"
    },
    {
      "anonymous": false,
      "inputs": [
        {
          "indexed": true,
          "internalType": "address",
          "name": "previousOwner",
          "type": "address"
        },
        {
          "indexed": true,
          "internalType": "address",
          "name": "newOwner",
          "type": "address"
        }
      ],
      "name": "OwnershipTransferred",
      "type": "event"
    },
    {
      "anonymous": false,
      "inputs": [
        {
          "indexed": false,
          "internalType": "address",
          "name": "account",
          "type": "address"
        }
      ],
      "name": "Paused",
      "type": "event"
    },
    {
      "anonymous": false,
      "inputs": [
        {
          "indexed": false,
          "internalType": "address",
          "name": "account",
          "type": "address"
        }
      ],
      "name": "Unpaused",
      "type": "event"
    },
    {
      "anonymous": false,
      "inputs": [
        {
          "indexed": true,
          "internalType": "address",
          "name": "user",
          "type": "address"
        },
        {
          "indexed": true,
          "internalType": "uint256",
          "name": "marketId",
          "type": "uint256"
        },
        {
          "indexed": false,
          "internalType": "uint256",
          "name": "amount",
          "type": "uint256"
        }
      ],
      "name": "WinningsClaimed",
      "type": "event"
    },
    {
      "inputs": [],
      "name": "MAX_MARKET_DURATION",
      "outputs": [
        {
          "internalType": "uint256",
          "name": "",
          "type": "uint256"
        }
      ],
      "stateMutability": "view",
      "type": "function"
    },
    {
      "inputs": [],
      "name": "MIN_BET_AMOUNT",
      "outputs": [
        {
          "internalType": "uint256",
          "name": "",
          "type": "uint256"
        }
      ],
      "stateMutability": "view",
      "type": "function"
    },
    {
      "inputs": [],
      "name": "MIN_MARKET_DURATION",
      "outputs": [
        {
          "internalType": "uint256",
          "name": "",
          "type": "uint256"
        }
      ],
      "stateMutability": "view",
      "type": "function"
    },
    {
      "inputs": [],
      "name": "RESOLUTION_PERIOD",
      "outputs": [
        {
          "internalType": "uint256",
          "name": "",
          "type": "uint256"
        }
      ],
      "stateMutability": "view",
      "type": "function"
    },
    {
      "inputs": [
        {
          "internalType": "uint256",
          "name": "",
          "type": "uint256"
        }
      ],
      "name": "activeMarkets",
      "outputs": [
        {
          "internalType": "uint256",
          "name": "",
          "type": "uint256"
        }
      ],
      "stateMutability": "view",
      "type": "function"
    },
    {
      "inputs": [
        {
          "internalType": "address",
          "name": "_resolver",
          "type": "address"
        }
      ],
      "name": "authorizeResolver",
      "outputs": [],
      "stateMutability": "nonpayable",
      "type": "function"
    },
    {
      "inputs": [
        {
          "internalType": "address",
          "name": "",
          "type": "address"
        }
      ],
      "name": "authorizedResolvers",
      "outputs": [
        {
          "internalType": "bool",
          "name": "",
          "type": "bool"
        }
      ],
      "stateMutability": "view",
      "type": "function"
    },
    {
      "inputs": [],
      "name": "bettingToken",
      "outputs": [
        {
          "internalType": "contract IERC20",
          "name": "",
          "type": "address"
        }
      ],
      "stateMutability": "view",
      "type": "function"
    },
    {
      "inputs": [
        {
          "internalType": "uint256",
          "name": "_marketId",
          "type": "uint256"
        },
        {
          "internalType": "address",
          "name": "_user",
          "type": "address"
        }
      ],
      "name": "calculateWinnings",
      "outputs": [
        {
          "internalType": "uint256",
          "name": "",
          "type": "uint256"
        }
      ],
      "stateMutability": "view",
      "type": "function"
    },
    {
      "inputs": [
        {
          "internalType": "uint256",
          "name": "_marketId",
          "type": "uint256"
        }
      ],
      "name": "claimWinnings",
      "outputs": [],
      "stateMutability": "nonpayable",
      "type": "function"
    },
    {
      "inputs": [
        {
          "internalType": "string",
          "name": "_question",
          "type": "string"
        },
        {
          "internalType": "string",
          "name": "_category",
          "type": "string"
        },
        {
          "internalType": "string",
          "name": "_description",
          "type": "string"
        },
        {
          "internalType": "uint256",
          "name": "_endTime",
          "type": "uint256"
        },
        {
          "internalType": "string[]",
          "name": "_outcomeDescriptions",
          "type": "string[]"
        },
        {
          "internalType": "uint8",
          "name": "_feePercentage",
          "type": "uint8"
        }
      ],
      "name": "createMarket",
      "outputs": [
        {
          "internalType": "uint256",
          "name": "",
          "type": "uint256"
        }
      ],
      "stateMutability": "nonpayable",
      "type": "function"
    },
    {
      "inputs": [],
      "name": "getActiveMarkets",
      "outputs": [
        {
          "internalType": "uint256[]",
          "name": "",
          "type": "uint256[]"
        }
      ],
      "stateMutability": "view",
      "type": "function"
    },
    {
      "inputs": [
        {
          "internalType": "uint256",
          "name": "_marketId",
          "type": "uint256"
        }
      ],
      "name": "getMarket",
      "outputs": [
        {
          "internalType": "uint256",
          "name": "id",
          "type": "uint256"
        },
        {
          "internalType": "string",
          "name": "question",
          "type": "string"
        },
        {
          "internalType": "string",
          "name": "category",
          "type": "string"
        },
        {
          "internalType": "string",
          "name": "description",
          "type": "string"
        },
        {
          "internalType": "uint256",
          "name": "endTime",
          "type": "uint256"
        },
        {
          "internalType": "uint256",
          "name": "resolutionTime",
          "type": "uint256"
        },
        {
          "internalType": "address",
          "name": "creator",
          "type": "address"
        },
        {
          "internalType": "bool",
          "name": "isResolved",
          "type": "bool"
        },
        {
          "internalType": "uint256",
          "name": "winningOutcome",
          "type": "uint256"
        },
        {
          "internalType": "uint256",
          "name": "totalVolume",
          "type": "uint256"
        },
        {
          "internalType": "uint256",
          "name": "outcomeCount",
          "type": "uint256"
        }
      ],
      "stateMutability": "view",
      "type": "function"
    },
    {
      "inputs": [
        {
          "internalType": "string",
          "name": "_category",
          "type": "string"
        }
      ],
      "name": "getMarketsByCategory",
      "outputs": [
        {
          "internalType": "uint256[]",
          "name": "",
          "type": "uint256[]"
        }
      ],
      "stateMutability": "view",
      "type": "function"
    },
    {
      "inputs": [
        {
          "internalType": "uint256",
          "name": "_marketId",
          "type": "uint256"
        },
        {
          "internalType": "uint256",
          "name": "_outcomeId",
          "type": "uint256"
        }
      ],
      "name": "getOutcome",
      "outputs": [
        {
          "internalType": "uint256",
          "name": "id",
          "type": "uint256"
        },
        {
          "internalType": "string",
          "name": "description",
          "type": "string"
        },
        {
          "internalType": "uint256",
          "name": "totalShares",
          "type": "uint256"
        },
        {
          "internalType": "uint256",
          "name": "totalBacked",
          "type": "uint256"
        },
        {
          "internalType": "bool",
          "name": "isActive",
          "type": "bool"
        }
      ],
      "stateMutability": "view",
      "type": "function"
    },
    {
      "inputs": [
        {
          "internalType": "address",
          "name": "_user",
          "type": "address"
        }
      ],
      "name": "getUserBets",
      "outputs": [
        {
          "components": [
            {
              "internalType": "uint256",
              "name": "marketId",
              "type": "uint256"
            },
            {
              "internalType": "uint256",
              "name": "outcomeId",
              "type": "uint256"
            },
            {
              "internalType": "uint256",
              "name": "shares",
              "type": "uint256"
            },
            {
              "internalType": "uint256",
              "name": "amountBacked",
              "type": "uint256"
            },
            {
              "internalType": "uint256",
              "name": "timestamp",
              "type": "uint256"
            },
            {
              "internalType": "bool",
              "name": "claimed",
              "type": "bool"
            }
          ],
          "internalType": "struct PredictionMarket.Bet[]",
          "name": "",
          "type": "tuple[]"
        }
      ],
      "stateMutability": "view",
      "type": "function"
    },
    {
      "inputs": [
        {
          "internalType": "address",
          "name": "_user",
          "type": "address"
        },
        {
          "internalType": "uint256",
          "name": "_marketId",
          "type": "uint256"
        },
        {
          "internalType": "uint256",
          "name": "_outcomeId",
          "type": "uint256"
        }
      ],
      "name": "getUserPosition",
      "outputs": [
        {
          "internalType": "uint256",
          "name": "shares",
          "type": "uint256"
        },
        {
          "internalType": "uint256",
          "name": "backed",
          "type": "uint256"
        }
      ],
      "stateMutability": "view",
      "type": "function"
    },
    {
      "inputs": [],
      "name": "marketCounter",
      "outputs": [
        {
          "internalType": "uint256",
          "name": "",
          "type": "uint256"
        }
      ],
      "stateMutability": "view",
      "type": "function"
    },
    {
      "inputs": [
        {
          "internalType": "uint256",
          "name": "",
          "type": "uint256"
        }
      ],
      "name": "markets",
      "outputs": [
        {
          "internalType": "uint256",
          "name": "id",
          "type": "uint256"
        },
        {
          "internalType": "string",
          "name": "question",
          "type": "string"
        },
        {
          "internalType": "string",
          "name": "category",
          "type": "string"
        },
        {
          "internalType": "string",
          "name": "description",
          "type": "string"
        },
        {
          "internalType": "uint256",
          "name": "endTime",
          "type": "uint256"
        },
        {
          "internalType": "uint256",
          "name": "resolutionTime",
          "type": "uint256"
        },
        {
          "internalType": "address",
          "name": "creator",
          "type": "address"
        },
        {
          "internalType": "bool",
          "name": "isResolved",
          "type": "bool"
        },
        {
          "internalType": "uint256",
          "name": "winningOutcome",
          "type": "uint256"
        },
        {
          "internalType": "uint256",
          "name": "totalVolume",
          "type": "uint256"
        },
        {
          "internalType": "uint256",
          "name": "totalLiquidity",
          "type": "uint256"
        },
        {
          "internalType": "uint256",
          "name": "outcomeCount",
          "type": "uint256"
        },
        {
          "internalType": "uint8",
          "name": "feePercentage",
          "type": "uint8"
        }
      ],
      "stateMutability": "view",
      "type": "function"
    },
    {
      "inputs": [
        {
          "internalType": "string",
          "name": "",
          "type": "string"
        },
        {
          "internalType": "uint256",
          "name": "",
          "type": "uint256"
        }
      ],
      "name": "marketsByCategory",
      "outputs": [
        {
          "internalType": "uint256",
          "name": "",
          "type": "uint256"
        }
      ],
      "stateMutability": "view",
      "type": "function"
    },
    {
      "inputs": [],
      "name": "owner",
      "outputs": [
        {
          "internalType": "address",
          "name": "",
          "type": "address"
        }
      ],
      "stateMutability": "view",
      "type": "function"
    },
    {
      "inputs": [],
      "name": "pause",
      "outputs": [],
      "stateMutability": "nonpayable",
      "type": "function"
    },
    {
      "inputs": [],
      "name": "paused",
      "outputs": [
        {
          "internalType": "bool",
          "name": "",
          "type": "bool"
        }
      ],
      "stateMutability": "view",
      "type": "function"
    },
    {
      "inputs": [
        {
          "internalType": "uint256",
          "name": "_marketId",
          "type": "uint256"
        },
        {
          "internalType": "uint256",
          "name": "_outcomeId",
          "type": "uint256"
        },
        {
          "internalType": "uint256",
          "name": "_amount",
          "type": "uint256"
        }
      ],
      "name": "placeBet",
      "outputs": [],
      "stateMutability": "nonpayable",
      "type": "function"
    },
    {
      "inputs": [],
      "name": "platformFeePercentage",
      "outputs": [
        {
          "internalType": "uint256",
          "name": "",
          "type": "uint256"
        }
      ],
      "stateMutability": "view",
      "type": "function"
    },
    {
      "inputs": [
        {
          "internalType": "address",
          "name": "_resolver",
          "type": "address"
        }
      ],
      "name": "removeResolver",
      "outputs": [],
      "stateMutability": "nonpayable",
      "type": "function"
    },
    {
      "inputs": [],
      "name": "renounceOwnership",
      "outputs": [],
      "stateMutability": "nonpayable",
      "type": "function"
    },
    {
      "inputs": [
        {
          "internalType": "uint256",
          "name": "_marketId",
          "type": "uint256"
        },
        {
          "internalType": "uint256",
          "name": "_winningOutcome",
          "type": "uint256"
        }
      ],
      "name": "resolveMarket",
      "outputs": [],
      "stateMutability": "nonpayable",
      "type": "function"
    },
    {
      "inputs": [
        {
          "internalType": "uint256",
          "name": "",
          "type": "uint256"
        }
      ],
      "name": "resolvedMarkets",
      "outputs": [
        {
          "internalType": "uint256",
          "name": "",
          "type": "uint256"
        }
      ],
      "stateMutability": "view",
      "type": "function"
    },
    {
      "inputs": [
        {
          "internalType": "uint256",
          "name": "_feePercentage",
          "type": "uint256"
        }
      ],
      "name": "setPlatformFee",
      "outputs": [],
      "stateMutability": "nonpayable",
      "type": "function"
    },
    {
      "inputs": [
        {
          "internalType": "address",
          "name": "newOwner",
          "type": "address"
        }
      ],
      "name": "transferOwnership",
      "outputs": [],
      "stateMutability": "nonpayable",
      "type": "function"
    },
    {
      "inputs": [],
      "name": "unpause",
      "outputs": [],
      "stateMutability": "nonpayable",
      "type": "function"
    },
    {
      "inputs": [
        {
          "internalType": "address",
          "name": "",
          "type": "address"
        },
        {
          "internalType": "uint256",
          "name": "",
          "type": "uint256"
        }
      ],
      "name": "userBets",
      "outputs": [
        {
          "internalType": "uint256",
          "name": "marketId",
          "type": "uint256"
        },
        {
          "internalType": "uint256",
          "name": "outcomeId",
          "type": "uint256"
        },
        {
          "internalType": "uint256",
          "name": "shares",
          "type": "uint256"
        },
        {
          "internalType": "uint256",
          "name": "amountBacked",
          "type": "uint256"
        },
        {
          "internalType": "uint256",
          "name": "timestamp",
          "type": "uint256"
        },
        {
          "internalType": "bool",
          "name": "claimed",
          "type": "bool"
        }
      ],
      "stateMutability": "view",
      "type": "function"
    },
    {
      "inputs": [
        {
          "internalType": "address",
          "name": "",
          "type": "address"
        },
        {
          "internalType": "uint256",
          "name": "",
          "type": "uint256"
        },
        {
          "internalType": "uint256",
          "name": "",
          "type": "uint256"
        }
      ],
      "name": "userPositions",
      "outputs": [
        {
          "internalType": "uint256",
          "name": "totalShares",
          "type": "uint256"
        },
        {
          "internalType": "uint256",
          "name": "totalBacked",
          "type": "uint256"
        }
      ],
      "stateMutability": "view",
      "type": "function"
    },
    {
      "inputs": [
        {
          "internalType": "address",
          "name": "_to",
          "type": "address"
        },
        {
          "internalType": "uint256",
          "name": "_amount",
          "type": "uint256"
        }
      ],
      "name": "withdrawPlatformFees",
      "outputs": [],
      "stateMutability": "nonpayable",
      "type": "function"
    }
  ],
  "bytecode": "0x6080346100f957601f61270f38819003918201601f19168301916001600160401b038311848410176100fe578084926020946040528339810103126100f957516001600160a01b038116908190036100f95733156100e35760008054336001600160a01b0319821681178355604051939290916001600160a01b0316907f8be0079c531659141344cd1fd0a4f28419497f9722a3daafe3b4186f6b6457e09080a360018055600260045560018060a01b0319600554161760055560006003553360005260096020526040600020600160ff198254161790556125fa90816101158239f35b631e4fbdf760e01b600052600060045260246000fd5b600080fd5b634e487b7160e01b600052604160045260246000fdfe6080604052600436101561001257600080fd5b60003560e01c806312e8e2c314611f655780632476080714611f475780632d56657d14611e0c5780633adfe6d014611de35780633f4ba83a14611d7a57806343425e8814611d5157806350f9059414611d335780635c975abb14611d105780636055733314611a2757806364628253146119eb5780636475e3d3146119c9578063677bd9ff146117b4578063684a61bb146114e3578063715018a61461175b57806376e6caff146116d45780637e50898e146116b55780637f51ad24146116635780638068aa68146115d35780638456cb59146115795780638da5cb5b1461155057806392f012b2146115335780639ba2dbc4146114e3578063a1333536146114a1578063a5e973c31461141a578063af7b718a146113d5578063aff14fe81461135b578063b1283e7714611256578063c0375d5c14610943578063c28f73421461084d578063cdd78cfc1461082f578063d794d2d9146107f0578063e71c96971461036a578063eb44fdd314610265578063f15cc4061461022b5763f2fde38b1461019d57600080fd5b34610226576020366003190112610226576101b6611fc2565b6101be6124ba565b6001600160a01b0316801561021057600080546001600160a01b03198116831782556001600160a01b0316907f8be0079c531659141344cd1fd0a4f28419497f9722a3daafe3b4186f6b6457e09080a3005b631e4fbdf760e01b600052600060045260246000fd5b600080fd5b34610226576040366003190112610226576024356001600160a01b03811681036102265761025d6020916004356123ca565b604051908152f35b34610226576020366003190112610226576004358015158061035e575b61028b90612286565b600052600660205261016060406000208054906004810154906005810154600682015460ff600784015491600885015493610324600a870154966103166102d4600183016121a6565b916103086102f060036102e9600285016121a6565b93016121a6565b936040519e8f9e8f908152816020820152019061224a565b8c810360408e01529061224a565b908a820360608c015261224a565b96608089015260a088015260018060a01b03811660c088015260a01c16151560e08601526101008501526101208401526101408301520390f35b50600354811115610282565b3461022657606036600319011261022657604435602435600435801515806107e4575b61039690612286565b8060005260066020526004604060002001544210156107ac5780600052600660205260ff60066040600020015460a01c16610767578115158061074c575b6103dd906122ca565b806000526006602052600c6040600020018260005260205261040960ff6004604060002001541661230f565b61041161253b565b6104196124e3565b662386f26fc100008310610710576005546040516323b872dd60e01b60208201523360248201523060448201526064808201869052815261046d916001600160a01b031661046860848361207c565b61255d565b806000526006602052600c60406000200182600052602052600360406000200154670de0b6b3a7640000810290808204670de0b6b3a764000014811517156106ce57670de0b6b3a76400000180670de0b6b3a7640000116106ce576104d1916123aa565b670de0b6b3a76400000180670de0b6b3a7640000116106ce57670de0b6b3a7640000840290848204670de0b6b3a764000014851517156106ce57610514916123aa565b816000526006602052600c60406000200183600052602052600260406000200161053f828254612376565b9055816000526006602052600c60406000200183600052602052600360406000200161056c858254612376565b9055816000526006602052600860406000200161058a858254612376565b905533600052600760205260406000208260005260205260406000208360005260205260406000206105bd828254612376565b8155600181016105ce868254612376565b90556040516105dc81612061565b83815260208101908582526040810190848252606081018881526080820142815260a08301916000835233600052600860205260406000208054600160401b8110156106fa576106319160018201815561212d565b9590956106e4576106709660059551875551600187015551600286015551600385015551600484015551151591019060ff801983541691151516179055565b33600052600860205260406000205460001981019081116106ce5760026106979201612353565b60405193845260208401527f9ab6b286d532c308925cb0664fe6228b8fe0d5137820cc28dc0ec44f7a3959e360403394a460018055005b634e487b7160e01b600052601160045260246000fd5b634e487b7160e01b600052600060045260246000fd5b634e487b7160e01b600052604160045260246000fd5b60405162461bcd60e51b815260206004820152601460248201527310995d08185b5bdd5b9d081d1bdbc81cdb585b1b60621b6044820152606490fd5b506000818152600660205260409020600a01548211156103d4565b60405162461bcd60e51b815260206004820152601a60248201527f4d61726b657420697320616c7265616479207265736f6c7665640000000000006044820152606490fd5b60405162461bcd60e51b815260206004820152601060248201526f13585c9ad95d081a185cc8195b99195960821b6044820152606490fd5b5060035481111561038d565b34610226576020366003190112610226576001600160a01b03610811611fc2565b166000526009602052602060ff604060002054166040519015158152f35b34610226576000366003190112610226576020600454604051908152f35b346102265761085b36612021565b9080151580610937575b61086e90612286565b8115158061091c575b610880906122ca565b806000526006602052600c604060002001826000526020526108ac60ff6004604060002001541661230f565b6000526006602052600c604060002001906000526020526040600020805460028201546003830154926108e9600160ff60048401541692016121a6565b93610906604051958695865260a0602087015260a086019061224a565b9260408501526060840152151560808301520390f35b506000818152600660205260409020600a0154821115610877565b50600354811115610865565b346102265760c0366003190112610226576004356001600160401b0381116102265761097390369060040161209d565b6024356001600160401b0381116102265761099290369060040161209d565b6044356001600160401b038111610226576109b190369060040161209d565b9060643590608435936001600160401b03851161022657366023860112156102265784600401356109e18161226f565b956109ef604051978861207c565b8187526024602088019260051b820101903682116102265760248101925b828410611227575050505060a43560ff811680910361022657610a2e6124e3565b8151156111e257600286511061119d57610e1042018042116106ce57841115611164576301e1338042018042116106ce5784101561112c57600a81116110e75760035460001981146106ce57600101948560035585600052600660205260406000209586556001860183516001600160401b0381116106fa57610ab1825461216c565b601f811161109f575b50806020601f821160011461103c57600091611031575b508160011b916000199060031b1c19161790555b6002860184516001600160401b0381116106fa57610b03825461216c565b601f8111610fe9575b50806020601f8211600114610f8657600091610f7b575b508160011b916000199060031b1c19161790555b805160038701916001600160401b0382116106fa578190610b58845461216c565b601f8111610f28575b50602090601f8311600114610ec057600092610eb5575b50508160011b916000199060031b1c19161790559392935b84600485015560068401336bffffffffffffffffffffffff60a01b825416179055600b84019060ff198254161790558451600a840155600c60009301925b8551811015610ded57600181018082116106ce57610bec8288612383565b5160405160a081018181106001600160401b038211176106fa5760405282815260208101918252604081016000815260608201600081526080830191600183526000948686528a60205260408620945185556001850190518051906001600160401b038211610dd957610c5f835461216c565b601f8111610d94575b50602090601f8311600114610d225792828998969360049693610cc7999660019e9d9c92610d17575b5050600019600383901b1c1916908c1b1790555b51600285015551600384015551151591019060ff801983541691151516179055565b506003547f13b320dbbda9468c124512288f63226d8154da6a3f8756dc29beb968e5671b44610d0e610cf9858c612383565b5160405191829160208352602083019061224a565b0390a301610bce565b015190503880610c91565b8389528189209190601f1984168a5b818110610d7c57509360049693610cc799969360019e9d9c9b9996938f948411610d63575b505050811b019055610ca5565b015160001960f88460031b161c19169055388080610d56565b92936020600181928786015181550195019301610d31565b83895260208920601f840160051c81019160208510610dcf575b601f0160051c01905b818110610dc45750610c68565b898155600101610db7565b9091508190610dae565b634e487b7160e01b88526041600452602488fd5b508360035492600a54600160401b8110156106fa576020610e6192610e3b8297610e22856001610e4e9701600a55600a612009565b90919082549060031b91821b91600019901b1916179055565b8160405193828580945193849201612149565b8101600c81520301902060035490612353565b7f57d0d124b72f81ed1da0dc728fc33db342705974792928796f6577b8db5c3d53610e9f60035493849360405192839260608452606084019061224a565b90878301523360408301520390a2604051908152f35b015190508980610b78565b60008581528281209350601f198516905b818110610f105750908460019594939210610ef7575b505050811b019055939293610b90565b015160001960f88460031b161c19169055898080610ee7565b92936020600181928786015181550195019301610ed1565b909150836000526020600020601f840160051c81019160208510610f71575b90601f859493920160051c01905b818110610f625750610b61565b60008155849350600101610f55565b9091508190610f47565b90508601518a610b23565b60008481528181209250601f198416905b818110610fd157509083600194939210610fb8575b5050811b019055610b37565b88015160001960f88460031b161c191690558a80610fac565b9192602060018192868d015181550194019201610f97565b826000526020600020601f830160051c81019160208410611027575b601f0160051c01905b81811061101b5750610b0c565b6000815560010161100e565b9091508190611005565b90508501518a610ad1565b60008481528181209250601f198416905b8181106110875750908360019493921061106e575b5050811b019055610ae5565b87015160001960f88460031b161c191690558a80611062565b9192602060018192868c01518155019401920161104d565b826000526020600020601f830160051c810191602084106110dd575b601f0160051c01905b8181106110d15750610aba565b600081556001016110c4565b90915081906110bb565b60405162461bcd60e51b815260206004820152601760248201527f4665652070657263656e7461676520746f6f20686967680000000000000000006044820152606490fd5b60405162461bcd60e51b815260206004820152601060248201526f22b732103a34b6b2903a37b7903330b960811b6044820152606490fd5b60405162461bcd60e51b815260206004820152601160248201527022b732103a34b6b2903a37b79039b7b7b760791b6044820152606490fd5b60405162461bcd60e51b815260206004820152601d60248201527f4d7573742068617665206174206c656173742032206f7574636f6d65730000006044820152606490fd5b60405162461bcd60e51b815260206004820152601860248201527f5175657374696f6e2063616e6e6f7420626520656d70747900000000000000006044820152606490fd5b83356001600160401b0381116102265760209161124b83926024369187010161209d565b815201930192610a0d565b346102265760203660031901126102265760043560005260066020526040600020805460018201611286906121a6565b91611293600282016121a6565b61129f600383016121a6565b9160048101549260058201546006830154600784015490600885015492600986015494600a87015496600b015460ff16976040519b8c9b8c5260208c016101a090526101a08c016112ef9161224a565b8b810360408d01526113009161224a565b8a810360608c01526113119161224a565b9760808a015260a0890152600160a01b60019003811660c089015260a01c60ff16151560e08801526101008701526101208601526101408501526101608401526101808301520390f35b34610226576040366003190112610226576004356001600160401b0381116102265761138b90369060040161209d565b6113a76020602435928160405193828580945193849201612149565b8101600c8152030190208054821015610226576020916113c691612009565b90549060031b1c604051908152f35b34610226576020366003190112610226576113ee611fc2565b6113f66124ba565b6001600160a01b03166000908152600960205260409020805460ff19166001179055005b3461022657600036600319011261022657604051806020600a54918281520190600a6000527fc65a7bb8d6351c1cf70c95a316cc6a92839c986682d98bc35f958f4883f9d2a89060005b81811061148b576114878561147b8187038261207c565b604051918291826120f3565b0390f35b8254845260209093019260019283019201611464565b34610226576020366003190112610226576114ba611fc2565b6114c26124ba565b6001600160a01b03166000908152600960205260409020805460ff19169055005b34610226576114f136612037565b9160018060a01b031660005260076020526040600020906000526020526040600020906000526020526040806000206001815491015482519182526020820152f35b34610226576000366003190112610226576020604051610e108152f35b34610226576000366003190112610226576000546040516001600160a01b039091168152602090f35b34610226576000366003190112610226576115926124ba565b61159a6124e3565b600160ff1960025416176002557f62e78cea01bee320cd4e420270b5ea74000d11b0c9f74754ebdbfc544b05a2586020604051338152a1005b34610226576040366003190112610226576115ec611fc2565b6001600160a01b03166000908152600860205260409020805460243591908210156102265760c09161161d9161212d565b50805490600181015490600281015460038201549060ff6005600485015494015416936040519586526020860152604085015260608401526080830152151560a0820152f35b3461022657602036600319011261022657600435600b5481101561022657600090600b548110156116a157602082600b829452200154604051908152f35b634e487b7160e01b82526032600452602482fd5b346102265760003660031901126102265760206040516301e133808152f35b34610226576020366003190112610226576004356001600160401b038111610226576020610e3b61170992369060040161209d565b8101600c81520301902060405190816020825491828152019160005260206000209060005b818110611745576114878561147b8187038261207c565b825484526020909301926001928301920161172e565b34610226576000366003190112610226576117746124ba565b600080546001600160a01b0319811682556001600160a01b03167f8be0079c531659141344cd1fd0a4f28419497f9722a3daafe3b4186f6b6457e08280a3005b3461022657602036600319011261022657600435801515806119bd575b6117da90612286565b6117e261253b565b6117ea6124e3565b80600052600660205260ff60066040600020015460a01c16156119785780600052600660205260076040600020015433600052600760205260406000208260005260205260406000209060005260205260406000209081541561193d5761185133826123ca565b90811561190157829060009260028301935b84548110156118ab576001903360005260086020526005611899604060002061188c848a612009565b90549060031b1c9061212d565b5001805460ff19168317905501611863565b50600080845560018401556005546118cf90829033906001600160a01b0316612500565b6040519081527f7472e24de4628e34b41a2aa1688ed4b46a9145b2de1cf93d74902473ccc1740d60203392a360018055005b60405162461bcd60e51b81526020600482015260146024820152734e6f2077696e6e696e677320746f20636c61696d60601b6044820152606490fd5b60405162461bcd60e51b81526020600482015260136024820152722737903bb4b73734b733903837b9b4ba34b7b760691b6044820152606490fd5b60405162461bcd60e51b815260206004820152601760248201527f4d61726b6574206e6f74207265736f6c766564207965740000000000000000006044820152606490fd5b506003548111156117d1565b34610226576000366003190112610226576020604051662386f26fc100008152f35b3461022657604036600319011261022657611a25611a07611fc2565b611a0f6124ba565b60055460243591906001600160a01b0316612500565b005b3461022657611a3536612021565b81151580611d04575b611a4790612286565b8160005260066020526004604060002001544210611cc65780151580611cab575b611a71906122ca565b816000526006602052600c60406000200181600052602052611a9d60ff6004604060002001541661230f565b33600052600960205260ff604060002054168015611c97575b15611c4857611ac36124e3565b81600052600660205260ff60066040600020015460a01c16611c035760008281526006602081905260408220908101805460ff60a01b1916600160a01b17905560078101839055426005909101555b600a549081811015611bfc5783611b2882611fd8565b90549060031b1c14611b3e576001915001611b12565b60001982019182116106ce57610e22611b59611b6693611fd8565b90549060031b1c91611fd8565b600a548015611be65760001901611b7c81611fd8565b8154906000199060031b1b19169055600a555b600b54600160401b8110156106fa577fc160a477581cb2155b1578581d805dcc0e6623403811fc2853465045bc0b049291611bd884610e2284600160409601600b55600b612009565b8151908152336020820152a2005b634e487b7160e01b600052603160045260246000fd5b5050611b8f565b60405162461bcd60e51b815260206004820152601760248201527f4d61726b657420616c7265616479207265736f6c7665640000000000000000006044820152606490fd5b60405162461bcd60e51b815260206004820152602160248201527f4e6f7420617574686f72697a656420746f207265736f6c7665206d61726b65746044820152607360f81b6064820152608490fd5b506000546001600160a01b03163314611ab6565b506000828152600660205260409020600a0154811115611a68565b60405162461bcd60e51b81526020600482015260166024820152754d61726b6574206973207374696c6c2061637469766560501b6044820152606490fd5b50600354821115611a3e565b3461022657600036600319011261022657602060ff600254166040519015158152f35b3461022657600036600319011261022657602060405162093a808152f35b34610226576000366003190112610226576005546040516001600160a01b039091168152602090f35b3461022657600036600319011261022657611d936124ba565b60025460ff811615611dd25760ff19166002557f5db9ee0a495bf2e6ff9c91a7834c1ba4fdd244a5e8aa4e537bd38aeae4b073aa6020604051338152a1005b638dfc202b60e01b60005260046000fd5b3461022657602036600319011261022657600435600a54811015610226576113c6602091611fd8565b34610226576020366003190112610226576001600160a01b03611e2d611fc2565b1660005260086020526040600020805490611e478261226f565b91611e55604051938461207c565b80835260208301809260005260206000206000915b838310611eed5784866040519182916020830190602084525180915260408301919060005b818110611e9d575050500390f35b91935091602060c060019260a087518051835284810151858401526040810151604084015260608101516060840152608081015160808401520151151560a0820152019401910191849392611e8f565b60066020600192604051611f0081612061565b85548152848601548382015260028601546040820152600386015460608201526004860154608082015260ff600587015416151560a0820152815201920192019190611e6a565b34610226576000366003190112610226576020600354604051908152f35b3461022657602036600319011261022657600435611f816124ba565b600a8111611f8e57600455005b60405162461bcd60e51b815260206004820152600c60248201526b08ccaca40e8dede40d0d2ced60a31b6044820152606490fd5b600435906001600160a01b038216820361022657565b600a54811015611ff357600a60005260206000200190600090565b634e487b7160e01b600052603260045260246000fd5b8054821015611ff35760005260206000200190600090565b6040906003190112610226576004359060243590565b6060906003190112610226576004356001600160a01b038116810361022657906024359060443590565b60c081019081106001600160401b038211176106fa57604052565b90601f801991011681019081106001600160401b038211176106fa57604052565b81601f82011215610226578035906001600160401b0382116106fa57604051926120d1601f8401601f19166020018561207c565b8284526020838301011161022657816000926020809301838601378301015290565b602060408183019282815284518094520192019060005b8181106121175750505090565b825184526020938401939092019160010161210a565b8054821015611ff3576000526006602060002091020190600090565b60005b83811061215c5750506000910152565b818101518382015260200161214c565b90600182811c9216801561219c575b602083101461218657565b634e487b7160e01b600052602260045260246000fd5b91607f169161217b565b90604051918260008254926121ba8461216c565b808452936001811690811561222857506001146121e1575b506121df9250038361207c565b565b90506000929192526020600020906000915b81831061220c5750509060206121df92820101386121d2565b60209193508060019154838589010152019101909184926121f3565b9050602092506121df94915060ff191682840152151560051b820101386121d2565b9060209161226381518092818552858086019101612149565b601f01601f1916010190565b6001600160401b0381116106fa5760051b60200190565b1561228d57565b60405162461bcd60e51b815260206004820152601560248201527413585c9ad95d08191bd95cc81b9bdd08195e1a5cdd605a1b6044820152606490fd5b156122d157565b60405162461bcd60e51b815260206004820152601660248201527513dd5d18dbdb5948191bd95cc81b9bdd08195e1a5cdd60521b6044820152606490fd5b1561231657565b60405162461bcd60e51b81526020600482015260156024820152744f7574636f6d65206973206e6f742061637469766560581b6044820152606490fd5b90815491600160401b8310156106fa5782610e229160016121df95018155612009565b919082018092116106ce57565b8051821015611ff35760209160051b010190565b818102929181159184041417156106ce57565b81156123b4570490565b634e487b7160e01b600052601260045260246000fd5b80600052600660205260ff60066040600020015460a01c16156124b3578060005260066020526007604060002001549160018060a01b031660005260076020526040600020816000526020526040600020826000526020526040600020549081156124ab576000526006602052604060002091600052600c82016020526040600020670de0b6b3a76400008202918204670de0b6b3a7640000036106ce576008916002612479920154906123aa565b910154606461248a60045483612397565b0481039081116106ce57670de0b6b3a7640000916124a791612397565b0490565b505050600090565b5050600090565b6000546001600160a01b031633036124ce57565b63118cdaa760e01b6000523360045260246000fd5b60ff600254166124ef57565b63d93c066560e01b60005260046000fd5b60405163a9059cbb60e01b60208201526001600160a01b0390921660248301526044808301939093529181526121df9161046860648361207c565b60026001541461254c576002600155565b633ee5aeb560e01b60005260046000fd5b906000602091828151910182855af1156125b8576000513d6125af57506001600160a01b0381163b155b61258e5750565b635274afe760e01b60009081526001600160a01b0391909116600452602490fd5b60011415612587565b6040513d6000823e3d90fdfea2646970667358221220139c9587bbf3e7ffd6ef24db92c841655f3363531670472a192dbc17918439a664736f6c634300081c0033",
  "linkReferences": {},
  "deployedLinkReferences": {}
}