{
  "_format": "hh-sol-artifact-1",
  "contractName": "SecurePredictionMarket",
  "sourceName": "contracts/SecurePredictionMarket.sol",
  "abi": [
    {
      "inputs": [
        {
          "internalType": "address",
          "name": "_bettingToken",
          "type": "address"
        }
      ],
      "stateMutability": "nonpayable",
      "type": "constructor"
    },
    {
      "inputs": [],
      "name": "EnforcedPause",
      "type": "error"
    },
    {
      "inputs": [],
      "name": "ExpectedPause",
      "type": "error"
    },
    {
      "inputs": [
        {
          "internalType": "address",
          "name": "owner",
          "type": "address"
        }
      ],
      "name": "OwnableInvalidOwner",
      "type": "error"
    },
    {
      "inputs": [
        {
          "internalType": "address",
          "name": "account",
          "type": "address"
        }
      ],
      "name": "OwnableUnauthorizedAccount",
      "type": "error"
    },
    {
      "inputs": [],
      "name": "ReentrancyGuardReentrantCall",
      "type": "error"
    },
    {
      "inputs": [
        {
          "internalType": "address",
          "name": "token",
          "type": "address"
        }
      ],
      "name": "SafeERC20FailedOperation",
      "type": "error"
    },
    {
      "anonymous": false,
      "inputs": [
        {
          "indexed": true,
          "internalType": "uint256",
          "name": "marketId",
          "type": "uint256"
        },
        {
          "indexed": true,
          "internalType": "uint256",
          "name": "outcomeId",
          "type": "uint256"
        },
        {
          "indexed": true,
          "internalType": "address",
          "name": "bettor",
          "type": "address"
        },
        {
          "indexed": false,
          "internalType": "uint256",
          "name": "amount",
          "type": "uint256"
        }
      ],
      "name": "BetPlaced",
      "type": "event"
    },
    {
      "anonymous": false,
      "inputs": [],
      "name": "EmergencyModeActivated",
      "type": "event"
    },
    {
      "anonymous": false,
      "inputs": [
        {
          "indexed": true,
          "internalType": "uint256",
          "name": "marketId",
          "type": "uint256"
        },
        {
          "indexed": false,
          "internalType": "string",
          "name": "question",
          "type": "string"
        },
        {
          "indexed": false,
          "internalType": "uint256",
          "name": "endTime",
          "type": "uint256"
        },
        {
          "indexed": false,
          "internalType": "address",
          "name": "creator",
          "type": "address"
        },
        {
          "indexed": false,
          "internalType": "enum SecurePredictionMarket.MarketVisibility",
          "name": "visibility",
          "type": "uint8"
        }
      ],
      "name": "MarketCreated",
      "type": "event"
    },
    {
      "anonymous": false,
      "inputs": [
        {
          "indexed": true,
          "internalType": "uint256",
          "name": "marketId",
          "type": "uint256"
        },
        {
          "indexed": false,
          "internalType": "uint256",
          "name": "winningOutcome",
          "type": "uint256"
        },
        {
          "indexed": false,
          "internalType": "address",
          "name": "resolver",
          "type": "address"
        }
      ],
      "name": "MarketResolved",
      "type": "event"
    },
    {
      "anonymous": false,
      "inputs": [
        {
          "indexed": true,
          "internalType": "address",
          "name": "previousOwner",
          "type": "address"
        },
        {
          "indexed": true,
          "internalType": "address",
          "name": "newOwner",
          "type": "address"
        }
      ],
      "name": "OwnershipTransferred",
      "type": "event"
    },
    {
      "anonymous": false,
      "inputs": [
        {
          "indexed": false,
          "internalType": "address",
          "name": "account",
          "type": "address"
        }
      ],
      "name": "Paused",
      "type": "event"
    },
    {
      "anonymous": false,
      "inputs": [
        {
          "indexed": false,
          "internalType": "uint256",
          "name": "expiry",
          "type": "uint256"
        }
      ],
      "name": "TimelockActivated",
      "type": "event"
    },
    {
      "anonymous": false,
      "inputs": [
        {
          "indexed": false,
          "internalType": "address",
          "name": "account",
          "type": "address"
        }
      ],
      "name": "Unpaused",
      "type": "event"
    },
    {
      "anonymous": false,
      "inputs": [
        {
          "indexed": true,
          "internalType": "address",
          "name": "user",
          "type": "address"
        },
        {
          "indexed": true,
          "internalType": "uint256",
          "name": "marketId",
          "type": "uint256"
        },
        {
          "indexed": false,
          "internalType": "uint256",
          "name": "amount",
          "type": "uint256"
        }
      ],
      "name": "WinningsClaimed",
      "type": "event"
    },
    {
      "inputs": [],
      "name": "MAX_PLATFORM_FEE",
      "outputs": [
        {
          "internalType": "uint256",
          "name": "",
          "type": "uint256"
        }
      ],
      "stateMutability": "view",
      "type": "function"
    },
    {
      "inputs": [],
      "name": "TIMELOCK_DELAY",
      "outputs": [
        {
          "internalType": "uint256",
          "name": "",
          "type": "uint256"
        }
      ],
      "stateMutability": "view",
      "type": "function"
    },
    {
      "inputs": [],
      "name": "activateEmergencyMode",
      "outputs": [],
      "stateMutability": "nonpayable",
      "type": "function"
    },
    {
      "inputs": [],
      "name": "activateWithdrawTimelock",
      "outputs": [],
      "stateMutability": "nonpayable",
      "type": "function"
    },
    {
      "inputs": [
        {
          "internalType": "uint256",
          "name": "_marketId",
          "type": "uint256"
        },
        {
          "internalType": "address",
          "name": "_user",
          "type": "address"
        }
      ],
      "name": "addUserToPrivateMarket",
      "outputs": [],
      "stateMutability": "nonpayable",
      "type": "function"
    },
    {
      "inputs": [],
      "name": "bettingToken",
      "outputs": [
        {
          "internalType": "contract IERC20",
          "name": "",
          "type": "address"
        }
      ],
      "stateMutability": "view",
      "type": "function"
    },
    {
      "inputs": [
        {
          "internalType": "uint256",
          "name": "_marketId",
          "type": "uint256"
        }
      ],
      "name": "claimWinnings",
      "outputs": [],
      "stateMutability": "nonpayable",
      "type": "function"
    },
    {
      "inputs": [
        {
          "internalType": "string",
          "name": "_question",
          "type": "string"
        },
        {
          "internalType": "string",
          "name": "_category",
          "type": "string"
        },
        {
          "internalType": "uint256",
          "name": "_endTime",
          "type": "uint256"
        },
        {
          "internalType": "string[]",
          "name": "_outcomeDescriptions",
          "type": "string[]"
        },
        {
          "internalType": "enum SecurePredictionMarket.MarketVisibility",
          "name": "_visibility",
          "type": "uint8"
        },
        {
          "internalType": "address[]",
          "name": "_allowedUsers",
          "type": "address[]"
        }
      ],
      "name": "createMarket",
      "outputs": [
        {
          "internalType": "uint256",
          "name": "",
          "type": "uint256"
        }
      ],
      "stateMutability": "nonpayable",
      "type": "function"
    },
    {
      "inputs": [],
      "name": "emergencyMode",
      "outputs": [
        {
          "internalType": "bool",
          "name": "",
          "type": "bool"
        }
      ],
      "stateMutability": "view",
      "type": "function"
    },
    {
      "inputs": [],
      "name": "emergencyWithdrawAllFunds",
      "outputs": [],
      "stateMutability": "pure",
      "type": "function"
    },
    {
      "inputs": [],
      "name": "getAccumulatedFees",
      "outputs": [
        {
          "internalType": "uint256",
          "name": "",
          "type": "uint256"
        }
      ],
      "stateMutability": "view",
      "type": "function"
    },
    {
      "inputs": [],
      "name": "getAvailableFunds",
      "outputs": [
        {
          "internalType": "uint256",
          "name": "",
          "type": "uint256"
        }
      ],
      "stateMutability": "view",
      "type": "function"
    },
    {
      "inputs": [],
      "name": "marketCounter",
      "outputs": [
        {
          "internalType": "uint256",
          "name": "",
          "type": "uint256"
        }
      ],
      "stateMutability": "view",
      "type": "function"
    },
    {
      "inputs": [
        {
          "internalType": "uint256",
          "name": "",
          "type": "uint256"
        }
      ],
      "name": "marketFundsLocked",
      "outputs": [
        {
          "internalType": "uint256",
          "name": "",
          "type": "uint256"
        }
      ],
      "stateMutability": "view",
      "type": "function"
    },
    {
      "inputs": [
        {
          "internalType": "uint256",
          "name": "",
          "type": "uint256"
        }
      ],
      "name": "markets",
      "outputs": [
        {
          "internalType": "uint256",
          "name": "id",
          "type": "uint256"
        },
        {
          "internalType": "string",
          "name": "question",
          "type": "string"
        },
        {
          "internalType": "string",
          "name": "category",
          "type": "string"
        },
        {
          "internalType": "uint256",
          "name": "endTime",
          "type": "uint256"
        },
        {
          "internalType": "address",
          "name": "creator",
          "type": "address"
        },
        {
          "internalType": "bool",
          "name": "isResolved",
          "type": "bool"
        },
        {
          "internalType": "uint256",
          "name": "winningOutcome",
          "type": "uint256"
        },
        {
          "internalType": "uint256",
          "name": "totalVolume",
          "type": "uint256"
        },
        {
          "internalType": "uint256",
          "name": "outcomeCount",
          "type": "uint256"
        },
        {
          "internalType": "enum SecurePredictionMarket.MarketVisibility",
          "name": "visibility",
          "type": "uint8"
        },
        {
          "internalType": "uint256",
          "name": "creationTime",
          "type": "uint256"
        },
        {
          "internalType": "bool",
          "name": "fundsLocked",
          "type": "bool"
        }
      ],
      "stateMutability": "view",
      "type": "function"
    },
    {
      "inputs": [],
      "name": "owner",
      "outputs": [
        {
          "internalType": "address",
          "name": "",
          "type": "address"
        }
      ],
      "stateMutability": "view",
      "type": "function"
    },
    {
      "inputs": [],
      "name": "paused",
      "outputs": [
        {
          "internalType": "bool",
          "name": "",
          "type": "bool"
        }
      ],
      "stateMutability": "view",
      "type": "function"
    },
    {
      "inputs": [
        {
          "internalType": "uint256",
          "name": "_marketId",
          "type": "uint256"
        },
        {
          "internalType": "uint256",
          "name": "_outcomeId",
          "type": "uint256"
        },
        {
          "internalType": "uint256",
          "name": "_amount",
          "type": "uint256"
        }
      ],
      "name": "placeBet",
      "outputs": [],
      "stateMutability": "nonpayable",
      "type": "function"
    },
    {
      "inputs": [],
      "name": "platformFeePercentage",
      "outputs": [
        {
          "internalType": "uint256",
          "name": "",
          "type": "uint256"
        }
      ],
      "stateMutability": "view",
      "type": "function"
    },
    {
      "inputs": [],
      "name": "renounceOwnership",
      "outputs": [],
      "stateMutability": "nonpayable",
      "type": "function"
    },
    {
      "inputs": [
        {
          "internalType": "uint256",
          "name": "_marketId",
          "type": "uint256"
        },
        {
          "internalType": "uint256",
          "name": "_winningOutcome",
          "type": "uint256"
        }
      ],
      "name": "resolveMarket",
      "outputs": [],
      "stateMutability": "nonpayable",
      "type": "function"
    },
    {
      "inputs": [],
      "name": "timelockExpiry",
      "outputs": [
        {
          "internalType": "uint256",
          "name": "",
          "type": "uint256"
        }
      ],
      "stateMutability": "view",
      "type": "function"
    },
    {
      "inputs": [],
      "name": "totalLockedFunds",
      "outputs": [
        {
          "internalType": "uint256",
          "name": "",
          "type": "uint256"
        }
      ],
      "stateMutability": "view",
      "type": "function"
    },
    {
      "inputs": [
        {
          "internalType": "address",
          "name": "newOwner",
          "type": "address"
        }
      ],
      "name": "transferOwnership",
      "outputs": [],
      "stateMutability": "nonpayable",
      "type": "function"
    },
    {
      "inputs": [
        {
          "internalType": "address",
          "name": "",
          "type": "address"
        },
        {
          "internalType": "uint256",
          "name": "",
          "type": "uint256"
        }
      ],
      "name": "userBets",
      "outputs": [
        {
          "internalType": "uint256",
          "name": "marketId",
          "type": "uint256"
        },
        {
          "internalType": "uint256",
          "name": "outcomeId",
          "type": "uint256"
        },
        {
          "internalType": "uint256",
          "name": "amount",
          "type": "uint256"
        },
        {
          "internalType": "uint256",
          "name": "timestamp",
          "type": "uint256"
        },
        {
          "internalType": "bool",
          "name": "claimed",
          "type": "bool"
        }
      ],
      "stateMutability": "view",
      "type": "function"
    },
    {
      "inputs": [
        {
          "internalType": "address",
          "name": "",
          "type": "address"
        },
        {
          "internalType": "uint256",
          "name": "",
          "type": "uint256"
        },
        {
          "internalType": "uint256",
          "name": "",
          "type": "uint256"
        }
      ],
      "name": "userPositions",
      "outputs": [
        {
          "internalType": "uint256",
          "name": "",
          "type": "uint256"
        }
      ],
      "stateMutability": "view",
      "type": "function"
    },
    {
      "inputs": [],
      "name": "withdrawPlatformFees",
      "outputs": [],
      "stateMutability": "nonpayable",
      "type": "function"
    }
  ],
  "bytecode": "0x6080346100ed57601f611eae38819003918201601f19168301916001600160401b038311848410176100f2578084926020946040528339810103126100ed57516001600160a01b038116908190036100ed5733156100d75760008054336001600160a01b0319821681178355604051939290916001600160a01b0316907f8be0079c531659141344cd1fd0a4f28419497f9722a3daafe3b4186f6b6457e09080a3600180556002805461ff0019168155600555600680546001600160a01b0319169190911790556000600455611da590816101098239f35b631e4fbdf760e01b600052600060045260246000fd5b600080fd5b634e487b7160e01b600052604160045260246000fdfe608080604052600436101561001357600080fd5b60003560e01c90816301fd5a07146115ac57508063070fe836146115805780630905f5601461155a578063247608071461153c5780633998a6811461152057806343425e88146114f75780635195bd291461146857806352e98790146114115780635ba1c1a9146113f35780635c975abb146113d05780635df45a37146113ad5780636055733314611230578063677bd9ff14611011578063684a61bb14610fbb578063715018a614610f625780638068aa6814610edd5780638d5e6896146107015780638da5cb5b146106d8578063b1283e77146105e6578063b743821214610499578063b88584bb1461047b578063cdd78cfc1461045d578063d0096010146103cf578063d0b7830b14610218578063e0b0642e146101fa578063e71c9697146101d65763f2fde38b1461014857600080fd5b346101d15760203660031901126101d15761016161161c565b610169611c71565b6001600160a01b031680156101bb57600080546001600160a01b03198116831782556001600160a01b0316907f8be0079c531659141344cd1fd0a4f28419497f9722a3daafe3b4186f6b6457e09080a3005b631e4fbdf760e01b600052600060045260246000fd5b600080fd5b346101d15760603660031901126101d1576101f86044356024356004356118e6565b005b346101d15760003660031901126101d1576020600354604051908152f35b346101d15760003660031901126101d157610231611c71565b60035480151590816103c4575b5015610388576006546040516370a0823160e01b81523060048201526001600160a01b0390911690602081602481855afa801561037c57600090610348575b61028b9150600b549061181e565b801561030d5761029961185a565b81116102be576000546102b7926001600160a01b0390911690611cbc565b6000600355005b60405162461bcd60e51b815260206004820152602160248201527f417474656d7074696e6720746f20776974686472617720757365722066756e646044820152607360f81b6064820152608490fd5b60405162461bcd60e51b81526020600482015260136024820152724e6f206665657320746f20776974686472617760681b6044820152606490fd5b506020813d602011610374575b8161036260209383611664565b810103126101d15761028b905161027d565b3d9150610355565b6040513d6000823e3d90fd5b60405162461bcd60e51b8152602060048201526014602482015273151a5b595b1bd8dac81b9bdd08195e1c1a5c995960621b6044820152606490fd5b90504210158161023e565b346101d15760003660031901126101d1576103e8611c71565b61010160025461010061ff0019821617600255610403611cf7565b61ffff1916176002557f62e78cea01bee320cd4e420270b5ea74000d11b0c9f74754ebdbfc544b05a2586020604051338152a17f9e91804b7b70a36dcecd9afc85507eb02441c485502f58d0e68589aa50b8226a600080a1005b346101d15760003660031901126101d1576020600554604051908152f35b346101d15760003660031901126101d1576020600b54604051908152f35b346101d15760403660031901126101d1576024356004356001600160a01b03821682036101d15780600052600760205260018060a01b0360046040600020015416331480156105d2575b1561058d5780600052600760205260ff600860406000200154166003811015610577571561053f57600052600760205260096040600020019060018060a01b03166000526020526040600020600160ff19825416179055600080f35b60405162461bcd60e51b815260206004820152601060248201526f4d61726b6574206973207075626c696360801b6044820152606490fd5b634e487b7160e01b600052602160045260246000fd5b60405162461bcd60e51b815260206004820152601b60248201527f4e6f74206d61726b65742063726561746f72206f722061646d696e00000000006044820152606490fd5b506000546001600160a01b031633146104e3565b346101d15760203660031901126101d157600435600052600760205260406000208054600182016106169061172c565b916106236002820161172c565b600382015491600481015460058201546006830154600784015491600885015460ff1693600b86015495600c015460ff16966040519a8b9a8b5260208b0161018090526101808b01610674916117d0565b8a810360408c0152610685916117d0565b9760608a0152600160a01b60019003811660808a015260a01c60ff16151560a089015260c088015260e087015261010086015261012085016106c691611811565b61014084015215156101608301520390f35b346101d15760003660031901126101d1576000546040516001600160a01b039091168152602090f35b346101d15760c03660031901126101d1576004356001600160401b0381116101d157610731903690600401611685565b6024356001600160401b0381116101d157610750903690600401611685565b606435906001600160401b0382116101d157366023830112156101d157816004013561077b816116db565b926107896040519485611664565b8184526024602085019260051b820101903682116101d15760248101925b828410610eae5750505050600360843510156101d15760a435916001600160401b0383116101d157366023840112156101d15782600401356107e8816116db565b936107f66040519586611664565b8185526024602086019260051b820101903682116101d157602401915b818310610e8e57505050610825611cf7565b835115610e49576002815110610e0457610e104201804211610dee576044351115610db557610855600454611838565b918260045582600052600760205260406000209283556001830185516001600160401b038111610ce75761088982546116f2565b601f8111610d6d575b50806020601f8211600114610d0857600091610cfd575b508160011b916000199060031b1c19161790555b805160028401916001600160401b038211610ce75781906108de84546116f2565b601f8111610c94575b50602090601f8311600114610c2f57600092610c24575b50508160011b916000199060031b1c19161790555b60443560038301556004820180546001600160a01b031916331790558051600783015560088201805460843560ff1660ff199182161790915542600b840155600c830180549091166001179055600093845b8251811015610b3f5760018101808211610b2b5761098382856118d2565b519060405190608082018281106001600160401b03821117610b175760405280825260208201928352886040830152600160608301528852600a8601602052604088209181518355518051906001600160401b038211610b17576109ea60018501546116f2565b601f8111610ad3575b506020908a601f8411600114610a605793836001979694600394606094610a4f9892610a55575b505060001982861b1c191690881b17848801555b604081015160028501550151151591019060ff801983541691151516179055565b01610965565b015190508e80610a1a565b50600185018b52818b209190601f1984168c5b818110610abb575084600394606094610a4f989460019b9a988c9510610aa3575b505050811b0187850155610a2e565b015160001983881b60f8161c191690558e8080610a94565b92936020600181928786015181550195019301610a73565b600185018b5260208b20601f840160051c810160208510610b10575b601f830160051c82018110610b055750506109f3565b8c8155600101610aef565b5080610aef565b634e487b7160e01b8a52604160045260248afd5b634e487b7160e01b87526011600452602487fd5b508284608435610bb2575b6020610b8b847fad43d32474567d8d378db7b040b4ab64c36b31a15be1560d4b50ddbef191ab0b6004549283926040519182916080835260808301906117d0565b60443587830152336040830152610ba760608301608435611811565b0390a2604051908152f35b60096000939201925b8151811015610bfe5760019060406001600160a01b03610bdb83866118d2565b5116600090848060a01b0316815286602052208260ff1982541617905501610bbb565b5050336000908152602092835260409020805460ff1916600117905590610b8b90610b4a565b0151905087806108fe565b60008581528281209350601f198516905b818110610c7c5750908460019594939210610c63575b505050811b019055610913565b015160001960f88460031b161c19169055878080610c56565b92936020600181928786015181550195019301610c40565b909150836000526020600020601f840160051c81019160208510610cdd575b90601f859493920160051c01905b818110610cce57506108e7565b60008155849350600101610cc1565b9091508190610cb3565b634e487b7160e01b600052604160045260246000fd5b9050870151886108a9565b60008481528181209250601f198416905b8a828210610d555750509083600194939210610d3c575b5050811b0190556108bd565b89015160001960f88460031b161c191690558880610d30565b60018495602093958493015181550194019201610d19565b826000526020600020601f830160051c81019160208410610dab575b601f0160051c01905b818110610d9f5750610892565b60008155600101610d92565b9091508190610d89565b60405162461bcd60e51b815260206004820152601160248201527022b732103a34b6b2903a37b79039b7b7b760791b6044820152606490fd5b634e487b7160e01b600052601160045260246000fd5b60405162461bcd60e51b815260206004820152601d60248201527f4d7573742068617665206174206c656173742032206f7574636f6d65730000006044820152606490fd5b60405162461bcd60e51b815260206004820152601860248201527f5175657374696f6e2063616e6e6f7420626520656d70747900000000000000006044820152606490fd5b82356001600160a01b03811681036101d157815260209283019201610813565b83356001600160401b0381116101d157602091610ed2839260243691870101611685565b8152019301926107a7565b346101d15760403660031901126101d157610ef661161c565b6001600160a01b03166000908152600860205260409020805460243591908210156101d15760a091610f2791611632565b50805490600181015490600281015460ff60046003840154930154169260405194855260208501526040840152606083015215156080820152f35b346101d15760003660031901126101d157610f7b611c71565b600080546001600160a01b0319811682556001600160a01b03167f8be0079c531659141344cd1fd0a4f28419497f9722a3daafe3b4186f6b6457e08280a3005b346101d15760603660031901126101d1576001600160a01b03610fdc61161c565b166000526009602052604060002060243560005260205260406000206044356000526020526020604060002054604051908152f35b346101d15760203660031901126101d15760043561102d611c9a565b80600052600760205260ff60046040600020015460a01c16156111f557336000526009602052604060002081600052602052604060002081600052600760205260056040600020015460005260205260406000205480156111ba57816000526007602052600a6040600020018260005260076020526005604060002001546000526020526110ee600260406000200154918360005260076020526110e860066040600020015460646110e160055483611847565b049061181e565b90611847565b600082156111a657500433600052600960205260406000208260005260205260406000208260005260076020526005604060002001546000526020526000604081205581600052600a602052604060002061114a82825461181e565b905561115881600b5461181e565b600b5560065461117490829033906001600160a01b0316611cbc565b6040519081527f7472e24de4628e34b41a2aa1688ed4b46a9145b2de1cf93d74902473ccc1740d60203392a360018055005b634e487b7160e01b81526012600452602490fd5b60405162461bcd60e51b81526020600482015260136024820152722737903bb4b73734b733903837b9b4ba34b7b760691b6044820152606490fd5b60405162461bcd60e51b815260206004820152601360248201527213585c9ad95d081b9bdd081c995cdbdb1d9959606a1b6044820152606490fd5b346101d15760403660031901126101d15760043560243561124f611c71565b81600052600760205260036040600020015442106113725781600052600760205260ff60046040600020015460a01c1661133a5781600052600760205260076040600020015481116113035760008281526007602090815260409182902060048101805460ff60a01b1916600160a01b17905560058101849055600c01805460ff19169055815192835233908301527fc160a477581cb2155b1578581d805dcc0e6623403811fc2853465045bc0b049291a2005b60405162461bcd60e51b815260206004820152600f60248201526e496e76616c6964206f7574636f6d6560881b6044820152606490fd5b60405162461bcd60e51b815260206004820152601060248201526f105b1c9958591e481c995cdbdb1d995960821b6044820152606490fd5b60405162461bcd60e51b81526020600482015260136024820152724d61726b6574207374696c6c2061637469766560681b6044820152606490fd5b346101d15760003660031901126101d15760206113c861185a565b604051908152f35b346101d15760003660031901126101d157602060ff600254166040519015158152f35b346101d15760003660031901126101d157602060405162093a808152f35b346101d15760003660031901126101d15761142a611c71565b62093a804201804211610dee576020817fa5b8133328bb3b966abf3547f2de354d544e6b3b781215e50daa372cd5acd4ef92600355604051908152a1005b346101d15760003660031901126101d1576006546040516370a0823160e01b815230600482015290602090829060249082906001600160a01b03165afa90811561037c576000916114c3575b60206113c883600b549061181e565b90506020813d6020116114ef575b816114de60209383611664565b810103126101d157516113c86114b4565b3d91506114d1565b346101d15760003660031901126101d1576006546040516001600160a01b039091168152602090f35b346101d15760003660031901126101d157602060405160058152f35b346101d15760003660031901126101d1576020600454604051908152f35b346101d15760003660031901126101d157602060ff60025460081c166040519015158152f35b346101d15760203660031901126101d157600435600052600a6020526020604060002054604051908152f35b346101d15760003660031901126101d15762461bcd60e51b815260206004820152603460248201527f53454355524954593a20557365722066756e64732063616e206e65766572206260448201527332903bb4ba34323930bbb710313c9030b236b4b760611b6064820152608490fd5b600435906001600160a01b03821682036101d157565b805482101561164e576000526005602060002091020190600090565b634e487b7160e01b600052603260045260246000fd5b90601f801991011681019081106001600160401b03821117610ce757604052565b81601f820112156101d1578035906001600160401b038211610ce757604051926116b9601f8401601f191660200185611664565b828452602083830101116101d157816000926020809301838601378301015290565b6001600160401b038111610ce75760051b60200190565b90600182811c92168015611722575b602083101461170c57565b634e487b7160e01b600052602260045260246000fd5b91607f1691611701565b9060405191826000825492611740846116f2565b80845293600181169081156117ae5750600114611767575b5061176592500383611664565b565b90506000929192526020600020906000915b8183106117925750509060206117659282010138611758565b6020919350806001915483858901015201910190918492611779565b90506020925061176594915060ff191682840152151560051b82010138611758565b919082519283825260005b8481106117fc575050826000602080949584010152601f8019910116010190565b806020809284010151828286010152016117db565b9060038210156105775752565b91908203918211610dee57565b91908201809211610dee57565b6000198114610dee5760010190565b81810292918115918404141715610dee57565b60006001600454905b8181111561187057505090565b80600052600760205260ff60046040600020015460a01c1661189b575b61189690611838565b611863565b916118ca6118969184600052600760205260646118c360066040600020015460055490611847565b049061182b565b92905061188d565b805182101561164e5760209160051b010190565b806000526007602052604060002060ff60088201541660038110156105775780611911575050505050565b600114611bfb575b50611922611c9a565b61192a611cf7565b8215611bb657806000526007602052600360406000200154421015611b7e5780600052600760205260ff60046040600020015460a01c16611b44576006546040516323b872dd60e01b6020820152336024820152306044820152606480820186905281526119ab916001600160a01b03166119a6608483611664565b611d14565b806000526007602052600a6040600020018260005260205260026040600020016119d684825461182b565b905580600052600760205260066040600020016119f484825461182b565b90553360005260096020526040600020816000526020526040600020826000526020526040600020611a2784825461182b565b905580600052600a6020526040600020611a4284825461182b565b9055611a5083600b5461182b565b600b5533600052600860205260406000206040519060a082018281106001600160401b03821117610ce7576040528282526020820191848352604081019186835260608201428152608083019160008352805468010000000000000000811015610ce757611ac391600182018155611632565b949094611b2e57611afc9560049451865551600186015551600285015551600384015551151591019060ff801983541691151516179055565b6040519283527ffdd8ed02332acacb3420e7345a9adadb30877075eade2bcde9fe778e8bb71e4260203394a460018055565b634e487b7160e01b600052600060045260246000fd5b60405162461bcd60e51b815260206004820152601260248201527113585c9ad95d081a5cc81c995cdbdb1d995960721b6044820152606490fd5b60405162461bcd60e51b815260206004820152601060248201526f13585c9ad95d081a185cc8195b99195960821b6044820152606490fd5b60405162461bcd60e51b815260206004820152601b60248201527f42657420616d6f756e74206d75737420626520706f73697469766500000000006044820152606490fd5b33600090815260098201602052604090205460ff16908115611c5a575b5015611c245738611919565b60405162461bcd60e51b815260206004820152600e60248201526d139bdd08185d5d1a1bdc9a5e995960921b6044820152606490fd5b600401546001600160a01b03163314905038611c18565b6000546001600160a01b03163303611c8557565b63118cdaa760e01b6000523360045260246000fd5b600260015414611cab576002600155565b633ee5aeb560e01b60005260046000fd5b60405163a9059cbb60e01b60208201526001600160a01b039092166024830152604480830193909352918152611765916119a6606483611664565b60ff60025416611d0357565b63d93c066560e01b60005260046000fd5b906000602091828151910182855af11561037c576000513d611d6657506001600160a01b0381163b155b611d455750565b635274afe760e01b60009081526001600160a01b0391909116600452602490fd5b60011415611d3e56fea2646970667358221220b61de42222ff693424939bc7b3b235174b16ba1f101c242bba4e344f60d87df764736f6c634300081c0033",
  "linkReferences": {},
  "deployedLinkReferences": {}
}