{
  "_format": "hh-sol-artifact-1",
  "contractName": "MockUSDC",
  "sourceName": "contracts/MockUSDC.sol",
  "abi": [
    {
      "inputs": [],
      "stateMutability": "nonpayable",
      "type": "constructor"
    },
    {
      "inputs": [
        {
          "internalType": "address",
          "name": "spender",
          "type": "address"
        },
        {
          "internalType": "uint256",
          "name": "allowance",
          "type": "uint256"
        },
        {
          "internalType": "uint256",
          "name": "needed",
          "type": "uint256"
        }
      ],
      "name": "ERC20InsufficientAllowance",
      "type": "error"
    },
    {
      "inputs": [
        {
          "internalType": "address",
          "name": "sender",
          "type": "address"
        },
        {
          "internalType": "uint256",
          "name": "balance",
          "type": "uint256"
        },
        {
          "internalType": "uint256",
          "name": "needed",
          "type": "uint256"
        }
      ],
      "name": "ERC20InsufficientBalance",
      "type": "error"
    },
    {
      "inputs": [
        {
          "internalType": "address",
          "name": "approver",
          "type": "address"
        }
      ],
      "name": "ERC20InvalidApprover",
      "type": "error"
    },
    {
      "inputs": [
        {
          "internalType": "address",
          "name": "receiver",
          "type": "address"
        }
      ],
      "name": "ERC20InvalidReceiver",
      "type": "error"
    },
    {
      "inputs": [
        {
          "internalType": "address",
          "name": "sender",
          "type": "address"
        }
      ],
      "name": "ERC20InvalidSender",
      "type": "error"
    },
    {
      "inputs": [
        {
          "internalType": "address",
          "name": "spender",
          "type": "address"
        }
      ],
      "name": "ERC20InvalidSpender",
      "type": "error"
    },
    {
      "inputs": [
        {
          "internalType": "address",
          "name": "owner",
          "type": "address"
        }
      ],
      "name": "OwnableInvalidOwner",
      "type": "error"
    },
    {
      "inputs": [
        {
          "internalType": "address",
          "name": "account",
          "type": "address"
        }
      ],
      "name": "OwnableUnauthorizedAccount",
      "type": "error"
    },
    {
      "anonymous": false,
      "inputs": [
        {
          "indexed": true,
          "internalType": "address",
          "name": "owner",
          "type": "address"
        },
        {
          "indexed": true,
          "internalType": "address",
          "name": "spender",
          "type": "address"
        },
        {
          "indexed": false,
          "internalType": "uint256",
          "name": "value",
          "type": "uint256"
        }
      ],
      "name": "Approval",
      "type": "event"
    },
    {
      "anonymous": false,
      "inputs": [
        {
          "indexed": true,
          "internalType": "address",
          "name": "previousOwner",
          "type": "address"
        },
        {
          "indexed": true,
          "internalType": "address",
          "name": "newOwner",
          "type": "address"
        }
      ],
      "name": "OwnershipTransferred",
      "type": "event"
    },
    {
      "anonymous": false,
      "inputs": [
        {
          "indexed": true,
          "internalType": "address",
          "name": "from",
          "type": "address"
        },
        {
          "indexed": true,
          "internalType": "address",
          "name": "to",
          "type": "address"
        },
        {
          "indexed": false,
          "internalType": "uint256",
          "name": "value",
          "type": "uint256"
        }
      ],
      "name": "Transfer",
      "type": "event"
    },
    {
      "inputs": [
        {
          "internalType": "address",
          "name": "owner",
          "type": "address"
        },
        {
          "internalType": "address",
          "name": "spender",
          "type": "address"
        }
      ],
      "name": "allowance",
      "outputs": [
        {
          "internalType": "uint256",
          "name": "",
          "type": "uint256"
        }
      ],
      "stateMutability": "view",
      "type": "function"
    },
    {
      "inputs": [
        {
          "internalType": "address",
          "name": "spender",
          "type": "address"
        },
        {
          "internalType": "uint256",
          "name": "value",
          "type": "uint256"
        }
      ],
      "name": "approve",
      "outputs": [
        {
          "internalType": "bool",
          "name": "",
          "type": "bool"
        }
      ],
      "stateMutability": "nonpayable",
      "type": "function"
    },
    {
      "inputs": [
        {
          "internalType": "address",
          "name": "account",
          "type": "address"
        }
      ],
      "name": "balanceOf",
      "outputs": [
        {
          "internalType": "uint256",
          "name": "",
          "type": "uint256"
        }
      ],
      "stateMutability": "view",
      "type": "function"
    },
    {
      "inputs": [
        {
          "internalType": "uint256",
          "name": "_amount",
          "type": "uint256"
        }
      ],
      "name": "burn",
      "outputs": [],
      "stateMutability": "nonpayable",
      "type": "function"
    },
    {
      "inputs": [],
      "name": "decimals",
      "outputs": [
        {
          "internalType": "uint8",
          "name": "",
          "type": "uint8"
        }
      ],
      "stateMutability": "view",
      "type": "function"
    },
    {
      "inputs": [
        {
          "internalType": "uint256",
          "name": "_amount",
          "type": "uint256"
        }
      ],
      "name": "faucet",
      "outputs": [],
      "stateMutability": "nonpayable",
      "type": "function"
    },
    {
      "inputs": [
        {
          "internalType": "address",
          "name": "_to",
          "type": "address"
        },
        {
          "internalType": "uint256",
          "name": "_amount",
          "type": "uint256"
        }
      ],
      "name": "mint",
      "outputs": [],
      "stateMutability": "nonpayable",
      "type": "function"
    },
    {
      "inputs": [],
      "name": "name",
      "outputs": [
        {
          "internalType": "string",
          "name": "",
          "type": "string"
        }
      ],
      "stateMutability": "view",
      "type": "function"
    },
    {
      "inputs": [],
      "name": "owner",
      "outputs": [
        {
          "internalType": "address",
          "name": "",
          "type": "address"
        }
      ],
      "stateMutability": "view",
      "type": "function"
    },
    {
      "inputs": [],
      "name": "renounceOwnership",
      "outputs": [],
      "stateMutability": "nonpayable",
      "type": "function"
    },
    {
      "inputs": [],
      "name": "symbol",
      "outputs": [
        {
          "internalType": "string",
          "name": "",
          "type": "string"
        }
      ],
      "stateMutability": "view",
      "type": "function"
    },
    {
      "inputs": [],
      "name": "totalSupply",
      "outputs": [
        {
          "internalType": "uint256",
          "name": "",
          "type": "uint256"
        }
      ],
      "stateMutability": "view",
      "type": "function"
    },
    {
      "inputs": [
        {
          "internalType": "address",
          "name": "to",
          "type": "address"
        },
        {
          "internalType": "uint256",
          "name": "value",
          "type": "uint256"
        }
      ],
      "name": "transfer",
      "outputs": [
        {
          "internalType": "bool",
          "name": "",
          "type": "bool"
        }
      ],
      "stateMutability": "nonpayable",
      "type": "function"
    },
    {
      "inputs": [
        {
          "internalType": "address",
          "name": "from",
          "type": "address"
        },
        {
          "internalType": "address",
          "name": "to",
          "type": "address"
        },
        {
          "internalType": "uint256",
          "name": "value",
          "type": "uint256"
        }
      ],
      "name": "transferFrom",
      "outputs": [
        {
          "internalType": "bool",
          "name": "",
          "type": "bool"
        }
      ],
      "stateMutability": "nonpayable",
      "type": "function"
    },
    {
      "inputs": [
        {
          "internalType": "address",
          "name": "newOwner",
          "type": "address"
        }
      ],
      "name": "transferOwnership",
      "outputs": [],
      "stateMutability": "nonpayable",
      "type": "function"
    }
  ],
  "bytecode": "0x60806040523461044057604080519081016001600160401b0381118282101761034b576040908152600d82526c26b7b1b5902aa9a21021b7b4b760991b602083015280519081016001600160401b0381118282101761034b5760405260048152635553444360e01b602082015281516001600160401b03811161034b57600354600181811c91168015610436575b602082101461032b57601f81116103d1575b50602092601f821160011461036c5792819293600092610361575b50508160011b916000199060031b1c1916176003555b80516001600160401b03811161034b57600454600181811c91168015610341575b602082101461032b57601f81116102c6575b50602091601f821160011461026257918192600092610257575b50508160011b916000199060031b1c1916176004555b33156102415760055460ff90336001600160a01b0382167f8be0079c531659141344cd1fd0a4f28419497f9722a3daafe3b4186f6b6457e0600080a36001600160a81b0319163360a083811b199190911691909117600960a11b176005819055901c16604d811161022b57600a0a80620f42400290620f424082040361022b5760006002548281018091116102175760025550336000526000602052604060002081815401905560405190815260007fddf252ad1be2c89b69c2b068fc378daa952ba7f163c4a11628f55a4df523b3ef60203393a360405161098b90816104468239f35b634e487b7160e01b82526011600452602482fd5b634e487b7160e01b600052601160045260246000fd5b631e4fbdf760e01b600052600060045260246000fd5b01519050388061011d565b601f198216926004600052806000209160005b8581106102ae57508360019510610295575b505050811b01600455610133565b015160001960f88460031b161c19169055388080610287565b91926020600181928685015181550194019201610275565b60046000527f8a35acfbc15ff81a39ae7d344fd709f28e8600b4aa8c65c6b64bfe7fe36bd19b601f830160051c81019160208410610321575b601f0160051c01905b8181106103155750610103565b60008155600101610308565b90915081906102ff565b634e487b7160e01b600052602260045260246000fd5b90607f16906100f1565b634e487b7160e01b600052604160045260246000fd5b0151905038806100ba565b601f198216936003600052806000209160005b8681106103b957508360019596106103a0575b505050811b016003556100d0565b015160001960f88460031b161c19169055388080610392565b9192602060018192868501518155019401920161037f565b60036000527fc2575a0e9e593c00f959f8c92f12db2869c3395a3b0502d05e2516446f71f85b601f830160051c8101916020841061042c575b601f0160051c01905b818110610420575061009f565b60008155600101610413565b909150819061040a565b90607f169061008d565b600080fdfe608080604052600436101561001357600080fd5b60003560e01c90816306fdde03146106d657508063095ea7b31461065057806318160ddd1461063257806323b872dd14610545578063313ce5671461052157806340c10f19146104f457806342966c681461044e57806357915897146103b657806370a082311461037c578063715018a61461031f5780638da5cb5b146102f657806395d89b41146101d5578063a9059cbb146101a4578063dd62ed3e146101535763f2fde38b146100c457600080fd5b3461014e57602036600319011261014e576100dd6107f2565b6100e56108cd565b6001600160a01b0316801561013857600580546001600160a01b0319811683179091556001600160a01b03167f8be0079c531659141344cd1fd0a4f28419497f9722a3daafe3b4186f6b6457e0600080a3005b631e4fbdf760e01b600052600060045260246000fd5b600080fd5b3461014e57604036600319011261014e5761016c6107f2565b610174610808565b6001600160a01b039182166000908152600160209081526040808320949093168252928352819020549051908152f35b3461014e57604036600319011261014e576101ca6101c06107f2565b602435903361081e565b602060405160018152f35b3461014e57600036600319011261014e5760405160006004548060011c906001811680156102ec575b6020831081146102d8578285529081156102bc5750600114610265575b50819003601f01601f191681019067ffffffffffffffff82118183101761024f5761024b829182604052826107a9565b0390f35b634e487b7160e01b600052604160045260246000fd5b905060046000527f8a35acfbc15ff81a39ae7d344fd709f28e8600b4aa8c65c6b64bfe7fe36bd19b6000905b8282106102a65750602091508201018261021b565b6001816020925483858801015201910190610291565b90506020925060ff191682840152151560051b8201018261021b565b634e487b7160e01b84526022600452602484fd5b91607f16916101fe565b3461014e57600036600319011261014e576005546040516001600160a01b039091168152602090f35b3461014e57600036600319011261014e576103386108cd565b600580546001600160a01b031981169091556000906001600160a01b03167f8be0079c531659141344cd1fd0a4f28419497f9722a3daafe3b4186f6b6457e08280a3005b3461014e57602036600319011261014e576001600160a01b0361039d6107f2565b1660005260006020526020604060002054604051908152f35b3461014e57602036600319011261014e5760043560ff60055460a01c16604d811161043857600a0a806103e802906103e8820403610438578111610400576103fe90336108f6565b005b60405162461bcd60e51b815260206004820152601060248201526f416d6f756e7420746f6f206c6172676560801b6044820152606490fd5b634e487b7160e01b600052601160045260246000fd5b3461014e57602036600319011261014e5760043533156104de576000338152806020526040812054918083106104c5578082933384528360205203604083205580600254036002556040519081527fddf252ad1be2c89b69c2b068fc378daa952ba7f163c4a11628f55a4df523b3ef60203392a380f35b60649263391434e360e21b835233600452602452604452fd5b634b637e8f60e11b600052600060045260246000fd5b3461014e57604036600319011261014e576103fe6105106107f2565b6105186108cd565b602435906108f6565b3461014e57600036600319011261014e57602060ff60055460a01c16604051908152f35b3461014e57606036600319011261014e5761055e6107f2565b610566610808565b6001600160a01b03821660008181526001602090815260408083203384529091529020549092604435929160001981106105a6575b506101ca935061081e565b8381106106155784156105ff5733156105e9576101ca946000526001602052604060002060018060a01b033316600052602052836040600020910390558461059b565b634a1406b160e11b600052600060045260246000fd5b63e602df0560e01b600052600060045260246000fd5b8390637dc7a0d960e11b6000523360045260245260445260646000fd5b3461014e57600036600319011261014e576020600254604051908152f35b3461014e57604036600319011261014e576106696107f2565b6024359033156105ff576001600160a01b03169081156105e957336000526001602052604060002082600052602052806040600020556040519081527f8c5be1e5ebec7d5bd14f71427d1e84f3dd0314c0f7b2291e5b200ac8c7c3b92560203392a3602060405160018152f35b3461014e57600036600319011261014e5760006003548060011c9060018116801561079f575b6020831081146102d8578285529081156102bc57506001146107485750819003601f01601f191681019067ffffffffffffffff82118183101761024f5761024b829182604052826107a9565b905060036000527fc2575a0e9e593c00f959f8c92f12db2869c3395a3b0502d05e2516446f71f85b6000905b8282106107895750602091508201018261021b565b6001816020925483858801015201910190610774565b91607f16916106fc565b91909160208152825180602083015260005b8181106107dc575060409293506000838284010152601f8019910116010190565b80602080928701015160408286010152016107bb565b600435906001600160a01b038216820361014e57565b602435906001600160a01b038216820361014e57565b6001600160a01b03169081156104de576001600160a01b03169182156108b757600082815280602052604081205482811061089d5791604082827fddf252ad1be2c89b69c2b068fc378daa952ba7f163c4a11628f55a4df523b3ef958760209652828652038282205586815280845220818154019055604051908152a3565b916064928463391434e360e21b8452600452602452604452fd5b63ec442f0560e01b600052600060045260246000fd5b6005546001600160a01b031633036108e157565b63118cdaa760e01b6000523360045260246000fd5b6001600160a01b03169081156108b757600254818101809111610438576002557fddf252ad1be2c89b69c2b068fc378daa952ba7f163c4a11628f55a4df523b3ef602060009284845283825260408420818154019055604051908152a356fea26469706673582212208d4e0fdb3308b2fe2c27de98ed8ed0025832274513597a2dd87a293699a0b94264736f6c634300081c0033",
  "linkReferences": {},
  "deployedLinkReferences": {}
}